:100000000C94C3010C94CA0A0C949F0A0C94740AB1
:100010000C94490A0C941E0A0C94F3090C94C80918
:100020000C949D090C94F4010C94F4010C94F401CB
:100030000C94F4010C94F4010C94F4010C94F4016C
:100040000C94F4010C94F4010C94F4010C94F4015C
:100050000C94F4010C94F4010C94F4010C945309E5
:100060000C94F4010C941F0B0C94F50A0C94F401FD
:100070000C94F4010C94F4010C94F4010C94F4012C
:100080000C94F4010C94F4010C94F4010C94F4011C
:100090000C94F4010C94F4010C94F4010C94F4010C
:1000A0000C94F4010C94F4010C94F4010C94F401FC
:1000B0000C94F4010C94F4010C94F4010C94F401EC
:1000C0000C94F4010C94F4010C94F4010C94F401DC
:1000D0000C94F4010C94F4010C94F4010C94F401CC
:1000E0000C94F40105A84CCDB2D44EB93836A9020F
:1000F0000C50B9918688083CA6AAAA2ABE00000026
:10010000803F0C9426020C94F9030C948F030C94FA
:10011000EA030C94A3030C943D020C9469110C9413
:10012000B7030C9433020C940D040C9425030C9427
:1001300048030C944F020C9434030C94C0040C94A8
:100140001A020C9414020C942A030C9429020C94A5
:1001500022020C943E030C9499030C9476030C94A5
:100160001E020C94D9060C94BD030C940F070C943A
:100170002F020C941D030C9455020C9454020C9401
:100180001B040C94AD030C946C030C9441020C946E
:1001900047020C9450030C94BC030C944B020C9437
:1001A00058030C9462030C9439020C9453040C947D
:1001B00059020C9485034E414E494E495459494EBB
:1001C00046CDCCCC3D0AD7233C17B7D13877CC2BC2
:1001D000329595E6241FB14F0A000020410000C867
:1001E0004200401C4620BCBE4CCA1B0E5AAEC59DE8
:1001F0007420523D00454E43204C3D0041434B206E
:1002000000454E43206C6566743D31382F313920EE
:1002100072696768743D32302F3231005245414473
:1002200059207061747465726E732B656E63203132
:10023000382F31392032302F323100504F53455F43
:100240004F4B0020523D005452494D204C3D005030
:100250004F4E47002054683D0020593D00504F53F9
:1002600020583D0000002100240027002A002D0016
:100270003000330001010000040107010A01000001
:100280002200250028002B002E003100340002013E
:100290000000050108010B010000200023002600DA
:1002A00029002C002F00320000010000030106018C
:1002B00009010505050507050808080802020202EC
:1002C0000A0A0808040404040101010101010101F2
:1002D0000303030303030303040707070C0C0C0CBD
:1002E0000C0C0C0C020202020606060606060606A6
:1002F0000B0B0B0B0B0B0B0B010210202008081033
:100300002040102040800201020108040201010285
:10031000040810204080804020100804020180045E
:1003200002018040201008040201080402010102B9
:1003300004081020408001020408102040800000C2
:100340000A0B02090C0D0E0807030401000000004F
:10035000000000000000000000000000000000009D
:10036000000000000000000000001211100000005A
:10037000000000000000000000000000000000007D
:1003800000000000691111241FBECFEFD1E2DEBFD3
:10039000CDBF00E00CBF23E0AEE6B2E001C01D928D
:1003A000A53CB207E1F712E0A0E0B2E0E2E4FDE232
:1003B00000E00BBF02C007900D92AE36B107D9F72F
:1003C00011E0C3ECD1E000E006C021970109802FC5
:1003D000FE010E946A16C23CD10780E00807A9F717
:1003E0000E94550B0C949F160C9400008150823192
:1003F00008F05AC0E82FF0E08827EE5FFD4F8F4FDE
:100400000C946A162202260214021A021E025402D8
:1004100029022F02330239023D02410247024B02F8
:1004200054024F0255025902809180008F778093C9
:1004300080000895809180008F7DF9CF80918000A9
:10044000877FF5CF84B58F7784BD089584B58F7D80
:10045000FBCF8091B0008F778093B000089580919A
:10046000B0008F7DF9CF809190008F7780939000BE
:100470000895809190008F7DF9CF80919000877FC3
:10048000F5CF8091A0008F778093A0000895809190
:10049000A0008F7DF9CF8091A000877FF5CF80915C
:1004A00020018F77809320010895809120018F7D16
:1004B000F9CF80912001877FF5CFCF93DF93282F4D
:1004C00030E0F901E25CFC4F8491F901E850FD4F06
:1004D000D491F901EE54FD4FC491CC23A1F08111C8
:1004E0000E94F601EC2FF0E0EE0FFF1FE856FD4FE3
:1004F000A591B491EC91ED2381E090E009F480E0C6
:10050000DF91CF91089580E090E0FACF1F93CF93D1
:10051000DF93282F30E0F901E25CFC4F8491F90170
:10052000E850FD4FD491F901EE54FD4FC491CC2316
:10053000A9F0162F81110E94F601EC2FF0E0EE0FCA
:10054000FF1FE258FD4FA591B4918FB7F894EC913D
:10055000111108C0D095DE23DC938FBFDF91CF91BE
:100560001F910895DE2BF8CFCF93DF9390E0FC012D
:10057000E850FD4F24918E549D4FFC0184918823B7
:10058000D1F090E0880F991FFC01EC59FD4FA59127
:10059000B491FC01E258FD4FC591D491623071F4E1
:1005A0009FB7F8943C91822F809583238C93E881A8
:1005B0002E2B28839FBFDF91CF9108958FB7F8949A
:1005C000EC912E2B2C938FBFF6CF1F93CF93DF93FD
:1005D000182FEB0161E00E94B402209739F460E02B
:1005E000812FDF91CF911F910C948602CF3FD105CF
:1005F00011F461E0F5CFE12FF0E0E25CFC4FE49113
:10060000E150E23108F0B3C0F0E08827E55FFC4F2D
:100610008F4F0C946A161D0325032A0334033E03EF
:10062000B70348035003580362036C037603850342
:100630008F03B7039903A303AD0384B5806884BD1A
:10064000C7BDDF91CF911F91089584B5806284BDAD
:10065000C8BDF7CF80918000806880938000D093E0
:100660008900C0938800EDCF8091800080628093E4
:100670008000D0938B00C0938A00E3CF80918000EC
:10068000886080938000D0938D00C0938C00D9CF78
:100690008091B00080688093B000C093B300D1CF48
:1006A0008091B00080628093B000C093B400C9CF45
:1006B00080919000806880939000D0939900C093BF
:1006C0009800BFCF80919000806280939000D0937B
:1006D0009B00C0939A00B5CF809190008860809372
:1006E0009000D0939D00C0939C00ABCF8091A00060
:1006F00080688093A0008091A0008F7B8093A000F1
:10070000D093A900C093A8009CCF8091A0008062E4
:100710008093A000D093AB00C093AA0092CF8091A9
:10072000A00088608093A000D093AD00C093AC007F
:1007300088CF80912001806880932001D093290187
:10074000C09328017ECF8091200180628093200198
:10075000D0932B01C0932A0174CF8091200188602F
:1007600080932001D0932D01C0932C016ACFC03813
:10077000D1050CF03ECF33CF0895AF92BF92CF9208
:10078000DF92EF92FF920F931F93CF93DF936C0151
:100790007B018B01040F151FEB015E01AE18BF0832
:1007A000C017D10759F06991D601ED91FC910190E4
:1007B000F081E02DC6011995892B79F7C501DF91EC
:1007C000CF911F910F91FF90EF90DF90CF90BF904E
:1007D000AF900895FC01538D448D252F30E0842F78
:1007E00090E0821B930B541710F0CF960895019759
:1007F0000895FC01918D828D981761F0A28DAE0F46
:10080000BF2FB11D5D968C91928D9F5F9F73928FCC
:1008100090E008958FEF9FEF0895FC01918D828DF8
:10082000981731F0828DE80FF11D858D90E00895C5
:100830008FEF9FEF0895FC01918D228D892F90E01D
:10084000805C9F4F821B91098F739927089586E2E0
:1008500093E00E941B0421E0892B09F420E0822F01
:100860000895FC01A48DA80FB92FB11DA35ABF4F45
:100870002C91848D90E001968F739927848FA6899F
:10088000B7892C93A089B1898C91837080648C93F3
:10089000938D848D981306C00288F389E02D8081A2
:1008A0008F7D80830895EF92FF920F931F93CF93D4
:1008B000DF93EC0181E0888F9B8D8C8D98131AC09B
:1008C000E889F989808185FF15C09FB7F894EE8982
:1008D000FF896083E889F9898081837080648083DF
:1008E0009FBF81E090E0DF91CF911F910F91FF902A
:1008F000EF900895F62E0B8D10E00F5F1F4F0F73D2
:100900001127E02E8C8D8E110CC00FB607FCFACF8C
:10091000E889F989808185FFF5CFCE010E943104F5
:10092000F1CFEB8DEC0FFD2FF11DE35AFF4FF0825D
:100930009FB7F8940B8FEA89FB8980818062CFCFC3
:100940000F931F93CF93DF938C01D0E0C0E0F801A9
:10095000EC0FFD1F6491662341F086E293E00E9454
:100960005304892B11F02196F2CFCE01DF91CF9164
:100970001F910F910895682F86E293E00C94530421
:10098000CF93DF93EC01888D8823B9F0AA89BB89C6
:10099000E889F9898C9185FD03C0808186FD0DC0B1
:1009A0000FB607FCF7CF8C9185FFF2CF808185FFD2
:1009B000EDCFCE010E943104E9CFDF91CF910895B0
:1009C00080E090E0892B29F00E94270481110E9489
:1009D000000080E090E0892B49F080E090E0892BD6
:1009E00029F00E94000081110E94000080E090E048
:1009F000892B49F080E090E0892B29F00E940000CB
:100A000081110E94000080E090E0892B49F080E095
:100A100090E0892B29F00E94000081110C940000C5
:100A200008958F3F910519F014F08FEF90E097FF34
:100A300002C090E080E09C01215031092935310548
:100A400010F48AE590E008950F931F93CF93DF93FE
:100A5000C82F862FD42F2130310591F461E00E94F8
:100A6000860260E08D2F0E948602C8010E94110557
:100A7000BC018C2FDF91CF911F910F910C94E50257
:100A800060E02F3F3F4F21F40E94860261E0EACFF1
:100A90000E94860260E08D2F0E94860270E060E076
:100AA000E8CF8F929F92AF92BF92CF92DF92EF9258
:100AB000FF920F931F93CF93DF935B016A01E901CC
:100AC00048019C014AE069E088E00E942405870112
:100AD000950146E065E087E00E94240584019601C7
:100AE0004CE06BE08DE00E94240587019E0144E00C
:100AF00063E082E00E942405DF91CF911F910F9166
:100B0000FF90EF90DF90CF90BF90AF909F908F902D
:100B10000895EF92FF920F931F93F12CE12C10E0B8
:100B200000E030E020E050E040E070E060E090E085
:100B300080E00E9451051092180310921703109242
:100B40001A031092190310921C0310921B031092A7
:100B5000EF021092F0021092F1021092F2021F9135
:100B60000F91FF90EF9008958F929F92AF92BF9256
:100B7000CF92DF92EF92FF920F931F93CF93DF9369
:100B80008C01EB0169017A0120E030E04CE553E48F
:100B900060911002709111028091120290911302E3
:100BA0000E94A513A70196010E9481144B015C01CC
:100BB00020E030E04CE553E460911402709115029E
:100BC00080911602909117020E94A513A701960129
:100BD0000E94801420E030E040E05FE30E94811436
:100BE0000E946415CB010E941105F8019183808356
:100BF00020E030E040E05FE3C501B4010E948114D1
:100C00000E946415CB010E94110599838883DF91AE
:100C1000CF911F910F91FF90EF90DF90CF90BF90F9
:100C2000AF909F908F9008956F927F928F929F9236
:100C3000AF92BF92CF92DF92EF92FF920F931F93EA
:100C4000CF93DF9300D01F92CDB7DEB79B01AC01ED
:100C500080901B0390901C03740197FE04C0EE2447
:100C6000FF24E818F908C0901903D0901A038601F0
:100C7000D7FE04C0002711270C191D096090170327
:100C800070901803530177FE04C0AA24BB24A61851
:100C9000B7081A8219821C821B82BE016D5F7F4FCA
:100CA000CE0101960E94B4058EE1E816F104E4F449
:100CB0000E311105C4F580E5A816B104ACF40E940C
:100CC00089050F900F900F900F90DF91CF911F919A
:100CD0000F91FF90EF90DF90CF90BF90AF909F90DB
:100CE0008F907F906F900895E016F106E4F0C501B3
:100CF00063E070E00E943416E616F7068CF081E09F
:100D000090E01814190414F08FEF9FEFEB80FC8033
:100D100009811A819C01AC01BC010E945105D1CF0F
:100D20000E151F0544F1C50163E070E00E94341602
:100D30000617170704F11C141D04CCF4CC24C3942B
:100D4000D12C20E030E0A901BE016D5F7F4FCE01C4
:100D500001960E94B405882799278C199D09EB807C
:100D6000FC8009811A819C01A601B601D6CFCC2452
:100D7000CA94DC2CE6CFCC24C394D12C16141704CF
:100D80001CF0CC24CA94DC2C20E030E0A901BE0188
:100D90006D5F7F4FCE0101960E94B4058827992789
:100DA0008C199D09EB80FC8009811A819601AC01A8
:100DB000DCCFCF93DF9384E10E945D02EC0185E1FB
:100DC0000E945D02AC0121E0CD2B09F420E091E00E
:100DD000452B09F490E0291316C08091EB02909105
:100DE000EC02A091ED02B091EE020197A109B109C8
:100DF0008093EB029093EC02A093ED02B093EE028D
:100E0000DF91CF9108958091EB029091EC02A09137
:100E1000ED02B091EE020196A11DB11DE9CFCF9375
:100E2000DF9382E10E945D02EC0183E10E945D029A
:100E3000AC0121E0CD2B09F420E091E0452B09F431
:100E400090E0291316C08091E7029091E802A091EA
:100E5000E902B091EA020196A11DB11D8093E7025B
:100E60009093E802A093E902B093EA02DF91CF9158
:100E700008958091E7029091E802A091E902B09173
:100E8000EA020197A109B109E9CFFC010190002014
:100E9000E9F73197AF01481B590BBC0186E293E09B
:100EA0000C94BD038F929F92AF92BF920F931F93AA
:100EB000CF93DF93CDB7DEB7A1970FB6F894DEBF1F
:100EC0000FBECDBF19A2423008F44AE08E010F5D7B
:100ED0001F4F842E912CB12CA12CA50194010E94AE
:100EE0004816E62FB901CA01EA30F4F4E05DD801F2
:100EF000EE938D01232B242B252B79F790E080E0B6
:100F0000109719F0CD010E944507A1960FB6F894ED
:100F1000DEBF0FBECDBFDF91CF911F910F91BF906C
:100F2000AF909F908F900895E95CE1CFCF93DF93CE
:100F30000E94A004EC018AE292E00E9445078C0F17
:100F40009D1FDF91CF910895CF92DF92EF92FF9294
:100F5000CF93DF9397FF19C06B017C018DE20E9454
:100F6000BB04EC0166277727CB016C197D098E093C
:100F70009F094AE00E9452078C0F9D1FDF91CF917D
:100F8000FF90EF90DF90CF9008954AE0DF91CF91EE
:100F9000FF90EF90DF90CF900C945207EF92FF926A
:100FA0000F931F93CF93DF937C018B01EA01909302
:100FB0001C0380931B0370931A03609319035093CF
:100FC0001803409317032FB7F89480912203909150
:100FD0002303A0912403B09125032FBF8093130313
:100FE00090931403A0931503B093160360E070E090
:100FF000CB010E94140686E293E00E94EA03459723
:1010000034F18CEF91E00E94A004B701FF0C880B33
:10101000990B0E94A40780E20E94BB04B801110F43
:10102000880B990B0E94A40780E20E94BB04BE01BA
:10103000DD0F880B990B0E94A4078AE292E0DF91F2
:10104000CF911F910F91FF90EF900C944507DF9186
:10105000CF911F910F91FF90EF90089586E293E05A
:101060000E94EA03889724F185EF91E00E94A00492
:10107000F8946091E7027091E8028091E902909102
:10108000EA0278940E94A40781EF91E00E94A004F4
:10109000F8946091EB027091EC028091ED029091D6
:1010A000EE0278940E94A4078AE292E00C9445072D
:1010B00008954F925F926F927F928F929F92AF921C
:1010C000BF92CF92DF92EF92FF920F931F93CF9335
:1010D0006B017C01742EAC019B010E94E6158823F4
:1010E00099F08DE292E0CF911F910F91FF90EF90D8
:1010F000DF90CF90BF90AF909F908F907F906F9038
:101100005F904F900C94450746015701E894B7F85B
:101110002FEF3FEF4FE75FE7C501B4010E94E615EF
:1011200081110DC02FEF3FEF4FE75FE7C501B4011D
:101130000E943F1318161CF481E392E0D4CF2FEFE6
:101140003FEF4FE75FE4C701B6010E94D9151816BB
:101150001CF485E392E0C7CF2FEF3FEF4FE75FEC42
:10116000C701B6010E943F1387FDF3CF20E030E0B6
:10117000A901C701B6010E943F1310E000E087FFFC
:1011800008C08DE20E94BB048C01F7FAF094F7F8D6
:10119000F094C0E060E070E080E09FE37C1641F0F6
:1011A00020E030E040E251E40E94F214CF5FF6CF3D
:1011B000A70196010E9481142B013C010E946B152E
:1011C0004B015C014AE00E9452077C01E00EF11ED7
:1011D000CC23B1F1C501B4010E9444139B01AC01C1
:1011E000C301B2010E9480144B015C018EE20E9497
:1011F000BB04E80EF91EC15018F120E030E040E2D7
:1012000051E4C501B4010E94A5132B013C010E94C9
:101210006B154B01B12CA12C4AE0C501B4010E9411
:101220005207E80EF91EC501B4010E9444139B0148
:10123000AC01C301B2010E9480144B015C01DBCF01
:10124000C701CF911F910F91FF90EF90DF90CF904A
:10125000BF90AF909F908F907F906F905F904F90D6
:1012600008950F931F93CF93DF938C01DC01CD91F1
:10127000DC919E012F5F3F4F8881803291F0CE013B
:101280000E949A119C01FE01219690819F7DD9F7C1
:10129000D801ED93FC93C901DF91CF911F910F917C
:1012A0000895E901E6CF1F920F920FB60F92112415
:1012B0002F933F938F939F93AF93BF93809122037C
:1012C00090912303A0912403B09125033091210331
:1012D00023E0230F2D3758F50196A11DB11D209352
:1012E00021038093220390932303A0932403B093BC
:1012F000250380911D0390911E03A0911F03B091BF
:1013000020030196A11DB11D80931D0390931E0320
:10131000A0931F03B0932003BF91AF919F918F9132
:101320003F912F910F900FBE0F901F90189526E8B8
:10133000230F0296A11DB11DD2CF1F920F920FB69F
:101340000F9211240BB60F922F933F934F935F93FD
:101350006F937F938F939F93AF93BF93EF93FF937D
:10136000E0910E02F0910F021995FF91EF91BF915C
:10137000AF919F918F917F916F915F914F913F912D
:101380002F910F900BBE0F900FBE0F901F901895CE
:101390001F920F920FB60F9211240BB60F922F933C
:1013A0003F934F935F936F937F938F939F93AF93ED
:1013B000BF93EF93FF93E0910C02F0910D0219950A
:1013C000FF91EF91BF91AF919F918F917F916F911D
:1013D0005F914F913F912F910F900BBE0F900FBED9
:1013E0000F901F9018951F920F920FB60F92112415
:1013F0000BB60F922F933F934F935F936F937F930F
:101400008F939F93AF93BF93EF93FF93E09102026B
:10141000F09103021995FF91EF91BF91AF919F91C8
:101420008F917F916F915F914F913F912F910F908D
:101430000BBE0F900FBE0F901F9018951F920F922A
:101440000FB60F9211240BB60F922F933F934F9329
:101450005F936F937F938F939F93AF93BF93EF931C
:10146000FF93E0910002F09101021995FF91EF9135
:10147000BF91AF919F918F917F916F915F914F91AC
:101480003F912F910F900BBE0F900FBE0F901F90AA
:1014900018951F920F920FB60F9211240BB60F9250
:1014A0002F933F934F935F936F937F938F939F936C
:1014B000AF93BF93EF93FF93E0910A02F0910B0279
:1014C0001995FF91EF91BF91AF919F918F917F916E
:1014D0006F915F914F913F912F910F900BBE0F90A5
:1014E0000FBE0F901F9018951F920F920FB60F927C
:1014F00011240BB60F922F933F934F935F936F93EB
:101500007F938F939F93AF93BF93EF93FF93E0915C
:101510000802F09109021995FF91EF91BF91AF91E7
:101520009F918F917F916F915F914F913F912F91FB
:101530000F900BBE0F900FBE0F901F9018951F922B
:101540000F920FB60F9211240BB60F922F933F9369
:101550004F935F936F937F938F939F93AF93BF93BB
:10156000EF93FF93E0910602F09107021995FF9126
:10157000EF91BF91AF919F918F917F916F915F910B
:101580004F913F912F910F900BBE0F900FBE0F9078
:101590001F9018951F920F920FB60F9211240BB641
:1015A0000F922F933F934F935F936F937F938F93FC
:1015B0009F93AF93BF93EF93FF93E0910402F09159
:1015C00005021995FF91EF91BF91AF919F918F9176
:1015D0007F916F915F914F913F912F910F900BBE33
:1015E0000F900FBE0F901F9018951F920F920FB67D
:1015F0000F9211240BB60F922F933F934F935F934B
:101600006F937F938F939F93AF93BF93EF93FF93CA
:1016100086E293E00E943104FF91EF91BF91AF9178
:101620009F918F917F916F915F914F913F912F91FA
:101630000F900BBE0F900FBE0F901F9018951F922A
:101640000F920FB60F9211240BB60F922F938F9318
:101650009F93EF93FF93E0913603F09137038081DE
:10166000E0913C03F0913D0382FD1DC0908180918B
:101670003F038F5F8F7320914003821741F0E09109
:101680003F03F0E0EA5DFC4F958F80933F03FF91AD
:10169000EF919F918F912F910F900BBE0F900FBEE6
:1016A0000F901F9018958081F2CFCF93DF93CDB725
:1016B000DEB76A970FB6F894DEBF0FBECDBF789441
:1016C00084B5826084BD84B5816084BD85B5826047
:1016D00085BD85B5816085BD80916E0081608093F8
:1016E0006E00109281008091810082608093810061
:1016F0008091810081608093810080918000816071
:10170000809380008091B10084608093B1008091CB
:10171000B00081608093B0008091910082608093DE
:101720009100809191008160809391008091900060
:101730008160809390008091A10082608093A100DD
:101740008091A10081608093A1008091A0008160C0
:101750008093A0008091210182608093210180917B
:10176000210181608093210180912001816080931B
:10177000200180917A00846080937A0080917A00C1
:10178000826080937A0080917A00816080937A00F1
:1017900080917A00806880937A001092C100E09175
:1017A0003603F091370382E08083E0913203F091B9
:1017B00033031082E0913403F091350380E180839C
:1017C00010923E03E0913A03F0913B0386E0808360
:1017D000E0913803F0913903808180618083E0914A
:1017E0003803F0913903808188608083E091380369
:1017F000F0913903808180688083E0913803F09113
:10180000390380818F7D808362E082E10E94B4028F
:1018100062E083E10E94B40262E084E10E94B402CB
:1018200062E085E10E94B40261E089E00E94B402B6
:1018300061E08AE00E94B40261E088E00E94B402A4
:1018400061E085E00E94B40261E086E00E94B4029B
:1018500061E087E00E94B40261E08BE00E94B40284
:1018600061E08CE00E94B40261E08DE00E94B4026D
:1018700061E083E00E94B40261E084E00E94B4026F
:1018800061E082E00E94B4020E9489058FE097E047
:1018900090930B0280930A02809169008F73806499
:1018A00080936900EB9A89ED96E09093070280930C
:1018B000060280916900837F846080936900E99AC1
:1018C0002FB7F8948091220390912303A0912403D1
:1018D000B09125032FBF8093130390931403A0931B
:1018E0001503B09316038CE192E00E94960781E005
:1018F00092E00E9496078FB7F894C0902203D09090
:101900002303E0902403F0902503CB82DC82ED8258
:10191000FE828FBF86E293E00E941B041816190610
:101920000CF0A0C186E293E00E94F903E091E60288
:101930008A3019F08D3009F089C1EE2359F3F0E0B7
:10194000E259FD4F108290916E029923D1F180915E
:101950006F02811139C0892F8F7D873549F450E09E
:1019600040E070E060E084EF91E00E94CE0729C083
:10197000833539F450E040E070E060E08CE09EEFA9
:10198000F4CF50E040E064EF71E0813431F0843412
:1019900039F450E040E06CE07EEF90E080E0E5CF8D
:1019A0004CED55E0813521F0853429F444E25AEFBD
:1019B00070E060E0F2CF883511F0903229F40E9497
:1019C00089051092E602A6CF44E050E069E372E098
:1019D0008EE692E00E949116892B89F344E050E054
:1019E0006EE372E08EE692E00E949116892B29F454
:1019F0008FE492E00E949607E4CF44E050E063E475
:101A000072E08EE692E00E949116892B19F40E94F2
:101A10002E08D7CF48E050E068E472E08EE692E00E
:101A20000E949116892B09F065C036E7E32E32E05B
:101A3000F32EFA82E982CE0101960E9431097C01DF
:101A4000CE0101960E9431098C01C701C3978634EB
:101A50009105A0F4B701FF0C880B990B0E94461367
:101A600020E030E048EC52E40E94F214609314024B
:101A7000709315028093160290931702C801C397C2
:101A800086349105A0F4B801110F880B990B0E94C0
:101A9000461320E030E048EC52E40E94F2146093D8
:101AA000100270931102809312029093130287E444
:101AB00092E00E94A004609114027091150280913E
:101AC00016029091170242E00E94590883E492E0C6
:101AD0000E94A00460911002709111028091120284
:101AE0009091130242E00E9459088AE292E00E941B
:101AF000450767CF48E050E061E572E08EE692E08E
:101B00000E94911626E7E22E22E0F22E892BF9F0B0
:101B100042E150E06AE572E08EE692E00E949116A2
:101B2000892B09F04ECFE0E8F2E0FA83E983CE0199
:101B300001960E9431097C01E981FA81808180321D
:101B400009F050C03196FA83E983F6CF7901970105
:101B50002F5F3F4FD7018C918032C1F3C7010E94A4
:101B600096116093FB027093FC028093FD029093A8
:101B7000FE028701F7018191882351F0803271F5CF
:101B80008701BFEFEB1AFB0AF80180818032C1F3B5
:101B9000C8010E9496116093F7027093F802809337
:101BA000F9029093FA02C801F8012191222349F029
:101BB0002032B1F4C8010F5F1F4FDC012C9120329D
:101BC000C9F30E9496116093F3027093F40280931C
:101BD000F5029093F6028BE392E00CCF7F01C9CF20
:101BE0008F01E1CF50E040E0882309F46FC3CE01BC
:101BF00001960E9431096C0109811A81D8018C91EA
:101C0000803229F40F5F1F4F1A830983F5CF882391
:101C100009F45BC36EE270E0C8010E948616892B4E
:101C200081F0C8010E94961120E030E04AE754E4B8
:101C30000E94A5130E946415CB01AC01B601C70137
:101C400094CECE0101960E943109F7CFE73708F014
:101C5000B8CE91E09E0F9093E602F0E0E259FD4F7E
:101C6000808358CE80911B0390911C03892B61F4D3
:101C70008091190390911A03892B31F480911703F5
:101C800090911803892BC9F080911303909114034C
:101C9000A0911503B0911603CB80DC80ED80FE800F
:101CA000C81AD90AEA0AFB0AD701C601813B944047
:101CB000A105B10510F00E94890580910F03909154
:101CC0001003A0911103B0911203CB80DC80ED8052
:101CD000FE80C81AD90AEA0AFB0AC701B6016431B4
:101CE00071058105910508F440C20E9444132FE656
:101CF00032E143E85AE30E94A5136F83788789870E
:101D00009A87CB80DC80ED80FE80C0920F03D0925A
:101D10001003E0921103F0921203F8944091E7024D
:101D20005091E8026091E9027091EA027894F89487
:101D30008091EB029091EC02A091ED02B091EE0245
:101D4000789400910B0310910C0320910D033091B6
:101D50000E036A017B01C01AD10AE20AF30ACB869C
:101D6000DC86ED86FE860091070310910803209122
:101D7000090330910A036C017D01C01AD10AE20AFD
:101D8000F30ACF86D88AE98AFA8A40930B035093E4
:101D90000C0360930D0370930E03809307039093DD
:101DA0000803A0930903B0930A036B857C858D8596
:101DB0009E850E94461322EE3CE543E251E40E94D8
:101DC000A5134B015C01C701B6010E94461322EE28
:101DD0003CE543E251E40E94A5136B017C01AC0198
:101DE0009B01C501B4010E94811420E030E040E075
:101DF0005FE30E94A5132B013C01A5019401C701DB
:101E0000B6010E94801420E030E04CE054E40E94CF
:101E1000F2142091F3023091F4024091F5025091B6
:101E2000F6020E9481146B017C012BED3FE049E436
:101E300050E40E94D91518164CF42BED3FE049EC04
:101E400050E4C701B6010E948014EDCF2BED3FE0B6
:101E500049E450ECC701B6010E943F1387FF0BC055
:101E60002BED3FE049EC50E4C701B6010E9481141C
:101E70006B017C01EBCFC092F302D092F402E092AE
:101E8000F502F092F602C701B6010E94ED144B0173
:101E90005C01AC019B01C301B2010E94A51320911A
:101EA000FB023091FC024091FD025091FE020E9423
:101EB00081146B8B7C8B8D8B9E8B6093FB0270935C
:101EC000FC028093FD029093FE02C701B6010E94BE
:101ED000DE156B017C01AC019B01C301B2010E94C4
:101EE000A5132091F7023091F8024091F902509128
:101EF000FA020E9481146F8B788F898F9A8F60937A
:101F0000F7027093F8028093F9029093FA0200911D
:101F1000190310911A03180117FF04C02224332457
:101F2000201A310A2FE122163104F4F1B801012EF2
:101F3000000C880B990B0E9446132B013C01C70132
:101F4000B6019058A30192010E94A5132F813885F4
:101F500049855A850E94A5132B893C894D895E8944
:101F60000E9481146093FB027093FC028093FD0237
:101F70009093FE02A3019201C501B4010E94A51332
:101F80002F81388549855A850E94A5132F89388D60
:101F9000498D5A8D0E9481146093F7027093F80264
:101FA0008093F9029093FA02E0901B03F0901C03D7
:101FB0008091170390911803E114F10429F4012B87
:101FC00019F4009709F4D1C09701F7FE04C0222745
:101FD00033272E193F092E3131057CF022153305A8
:101FE00064F097FF03C091958195910963E070E0DB
:101FF0000E94341626173707D4F426E636E646E65E
:102000005FE36091EF027091F0028091F102909194
:10201000F2020E94A5136093EF027093F002809386
:10202000F1029093F202812C912C54019AC08B857D
:102030009C85AD85BE85892B8A2B8B2B41F42F8502
:10204000388949895A89232B242B252B61F36B85E9
:102050007C858D859E852F85388949895A89621BA3
:10206000730B840B950B0E9446134B015C01AC0172
:102070009B016F81788589859A850E94A51320919F
:10208000EF023091F0024091F1025091F2020E9471
:1020900081142B013C0120E030E040E252E40E9438
:1020A000D91518160CF4F6C04092EF025092F002C7
:1020B0006092F1027092F20220E030E040E252ECD5
:1020C0006091EF027091F0028091F1029091F20222
:1020D0000E943F1387FF0CC080E090E0A0E2B2ECCA
:1020E0008093EF029093F002A093F102B093F2027A
:1020F00023E333E343EB5EE36091EF027091F00280
:102100008091F1029091F2020E94A5132B013C01F3
:1021100020E030E040E250E4C501B4010E94A51384
:102120009B01AC01C301B2010E9481144B015C010F
:1021300020E030E040E252E40E94D91518160CF479
:10214000B6C020E030E040E252ECC501B4010E948C
:102150003F1387FDB3C0F7FE04C0B7FAB094B7F8D9
:10216000B094C501B4010E941406809103039091BC
:102170000403A0910503B0910603CB80DC80ED80C1
:10218000FE80C81AD90AEA0AFB0AD701C6018436BA
:102190009105A105B10508F443C0CB80DC80ED803A
:1021A000FE80C0920303D0920403E0920503F092F4
:1021B000060386E293E00E94EA03C0978CF18DE566
:1021C00092E00E94A0046091FB027091FC02809159
:1021D000FD029091FE0242E00E94590889E592E0DA
:1021E0000E94A0046091F7027091F8028091F902B8
:1021F0009091FA0242E00E94590884E592E00E9420
:10220000A0046091F3027091F4028091F502909124
:10221000F60242E00E9459088AE292E00E944507D5
:102220008091FF0290910003A0910103B0910203FD
:10223000CB80DC80ED80FE80C81AD90AEA0AFB0A4E
:10224000D701C601843F9140A105B10500F1CB80C3
:10225000DC80ED80FE80C092FF02D0920003E0920D
:102260000103F092020380911B0390911C03892BC0
:1022700061F48091190390911A03892B31F48091B4
:10228000170390911803892B11F00E942E080E94C9
:10229000E00431CB80E090E0A0E2B2E48093EF0272
:1022A0009093F002A093F102B093F20205CF812C3B
:1022B000912C90E2A92E92E4B92E4DCF812C912C35
:1022C00080E2A82E82ECB82E46CFA60170E060E036
:1022D000B6CCE6E2F3E01382128288EE93E0A0E04F
:1022E000B0E084839583A683B7838CE192E09183E9
:1022F000808385EC90E09587848784EC90E09787D5
:10230000868780EC90E0918B808B81EC90E0938BC2
:10231000828B82EC90E0958B848B86EC90E0978B9F
:10232000868B118E128E138E148E08956627772752
:102330000C94C011FC0188279927E8942191203240
:10234000E9F3293010F02E30C8F32B3241F02D3252
:1023500039F4689404C00E94B811820F911D219134
:1023600020532A30C0F31EF4909581959F4F089515
:102370007AE0979F902D879F802D910D11240895CD
:102380008F929F92AF92BF92CF92DF92EF92FF9285
:102390000F931F93CF93DF935C017B016115710550
:1023A00019F0DB018D939C9385010F5F1F4FF501A1
:1023B000D0818D2F90E00E941E136C01892BB9F5FE
:1023C000DD32B9F50F5F1F4FD5011196DC91C1E0E9
:1023D0005801F1E0AF1AB10843E050E06EEB71E054
:1023E000C5010E942713892B69F5680182E0C80E98
:1023F000D11C45E050E069EB71E0C6010E94271353
:10240000892B21F4680197E0C90ED11CE114F10475
:1024100019F0D701CD92DC9260E070E080E89FEF88
:10242000C111FFC060E070E080E89FE7FAC058018A
:10243000BBCFDB3229F485010E5F1F4FF501D1813F
:10244000C0E0C6CF43E050E066EB71E0C5010E94FA
:102450002713892BE9F0F80110E000E020E030E0DC
:10246000A9015F01B0ED8B2E8D0E89E08815C8F1B2
:102470009C2E689491F88C2F8870C2FF16C0811131
:1024800002C00F5F1F4F3196D501DC91C92DE9CFF6
:10249000E114F10429F00E5F1F4FF701118300834F
:1024A00060E070E080EC9FE7BCC0882311F0015031
:1024B0001109A5E0B0E00E9466149B01AC01220F57
:1024C000331F441F551F280D311D411D511D283933
:1024D00099E93907490799E15907A8F2C6609C2E86
:1024E000D2CFAEEF8A1206C0C3FD3CC09C2E6894CA
:1024F00093F8C9CFDF7DD534A9F580818D3239F4C9
:10250000C061DF011296818162E070E006C0DF01E8
:102510008B32C1F3119661E070E080535D01A61A21
:10252000B70A8A30F8F4E0E8CE16ECE0DE065CF498
:10253000B601660F771F660F771FC60ED71ECC0C2D
:10254000DD1CC80ED11C5D01FFEFAF1ABF0A8C91D4
:1025500080538A30A8F1C4FF03C0D194C194D1083C
:102560000C0D1D1DC1FF09C0E114F10431F081E023
:10257000A81AB108D701AD92BC92CA01B9010E9454
:102580004413C370C33009F490584B015C0120E040
:1025900030E0A9010E943F13882309F440C0CDEE2A
:1025A000D1E017FF05C0119501951109C5EDD1E0E6
:1025B0006E01B8E1CB1AD10880E2E82EF12C0FC0F1
:1025C000D501B1CFFE0125913591459154910E1958
:1025D0001F09C501B4010E94A5134B015C01D5017F
:1025E000C4010E151F0574F72497F594E794CC16D3
:1025F000DD06A9F78A2F880F8B2F881F8F3F49F0A0
:1026000020E030E0A901C501B4010E943F1381110F
:1026100006C082E290E09093C4038093C303C50197
:10262000B401DF91CF911F910F91FF90EF90DF9058
:10263000CF90BF90AF909F908F90089591110C9480
:102640001214803219F089508550C8F70895FB01A3
:10265000DC014150504088F08D9181341CF08B3565
:102660000CF4805E659161341CF06B350CF4605E97
:10267000861B611171F3990B0895881BFCCF0E9492
:10268000811308F481E00895E89409C097FB3EF4B3
:1026900090958095709561957F4F8F4F9F4F9923AF
:1026A000A9F0F92F96E9BB279395F695879577952D
:1026B0006795B795F111F8CFFAF4BB0F11F460FFED
:1026C0001BC06F5F7F4F8F4F9F4F16C0882311F045
:1026D00096E911C0772321F09EE8872F762F05C059
:1026E000662371F096E8862F70E060E02AF09A95F4
:1026F000660F771F881FDAF7880F9695879597F9E9
:102700000895990F0008550FAA0BE0E8FEEF161682
:102710001706E807F907C0F012161306E407F507D5
:1027200098F0621B730B840B950B39F40A2661F049
:10273000232B242B252B21F408950A2609F4A140EC
:10274000A6958FEF811D811D08950E94B8130C94EA
:102750002C140E941E1438F00E94251420F095239A
:1027600011F00C9415140C941B1411240C94601487
:102770000E943D1470F3959FC1F3950F50E0551FD3
:10278000629FF001729FBB27F00DB11D639FAA27C6
:10279000F00DB11DAA1F649F6627B00DA11D661F15
:1027A000829F2227B00DA11D621F739FB00DA11D36
:1027B000621F839FA00D611D221F749F3327A00DF0
:1027C000611D231F849F600D211D822F762F6A2F8C
:1027D00011249F5750409AF0F1F088234AF0EE0FF1
:1027E000FF1FBB1F661F771F881F91505040A9F71E
:1027F0009E3F510580F00C9415140C9460145F3FBB
:10280000E4F3983ED4F3869577956795B795F79559
:10281000E7959F5FC1F7FE2B880F911D96958795D1
:1028200097F9089599278827089597F99F6780E871
:1028300070E060E008959FEF80EC089500240A9412
:102840001616170618060906089500240A9412168B
:102850001306140605060895092E0394000C11F4BE
:10286000882352F0BB0F40F4BF2B11F460FF04C06B
:102870006F5F7F4F8F4F9F4F089557FD9058440FC4
:10288000551F59F05F3F71F04795880F97FB991FCF
:1028900061F09F3F79F0879508951216130614068C
:1028A000551FF2CF4695F1DF08C016161706180619
:1028B000991FF1CF86957105610508940895E894F4
:1028C000BB2766277727CB0197F908950E947114DB
:1028D000A59F900DB49F900DA49F800D911D112474
:1028E0000895A29FB001B39FC001A39F700D811DE9
:1028F0001124911DB29F700D811D1124911D089509
:102900005058BB27AA270E9498140C942C140E949C
:102910001E1438F00E94251420F039F49F3F19F45A
:1029200026F40C941B140EF4E095E7FB0C9415149C
:10293000E92F0E943D1458F3BA1762077307840702
:10294000950720F079F4A6F50C945F140EF4E09549
:102950000B2EBA2FA02D0B01B90190010C01CA0159
:10296000A0011124FF27591B99F0593F50F4503E04
:1029700068F11A16F040A22F232F342F4427585FF6
:10298000F3CF469537952795A795F0405395C9F70E
:102990007EF41F16BA0B620B730B840BBAF09150C6
:1029A000A1F0FF0FBB1F661F771F881FC2F70EC065
:1029B000BA0F621F731F841F48F487957795679538
:1029C000B795F7959E3F08F0B0CF9395880F08F024
:1029D0009927EE0F9795879508950E949C15E3958A
:1029E0000C94C5150E9406150C942C140E942514F5
:1029F00058F00E941E1440F029F45F3F29F00C9417
:102A0000151451110C9460140C941B140E943D1465
:102A100068F39923B1F3552391F3951B550BBB270D
:102A2000AA2762177307840738F09F5F5F4F220F52
:102A3000331F441FAA1FA9F335D00E2E3AF0E0E849
:102A400032D091505040E695001CCAF72BD0FE2F93
:102A500029D0660F771F881FBB1F26173707480727
:102A6000AB07B0E809F0BB0B802DBF01FF279358DF
:102A70005F4F3AF09E3F510578F00C9415140C947A
:102A800060145F3FE4F3983ED4F38695779567959D
:102A9000B795F7959F5FC9F7880F911D9695879514
:102AA00097F90895E1E0660F771F881FBB1F621733
:102AB00073078407BA0720F0621B730B840BBA0BF1
:102AC000EE1F88F7E09508950E946B156894B11188
:102AD0000C94601408950E94451488F09F5798F054
:102AE000B92F9927B751B0F0E1F0660F771F881F13
:102AF000991F1AF0BA95C9F714C0B13091F00E942D
:102B00005F14B1E008950C945F14672F782F882725
:102B1000B85F39F0B93FCCF3869577956795B39553
:102B2000D9F73EF490958095709561957F4F8F4FC2
:102B30009F4F08950C941B140E944514D8F3E894F9
:102B4000E0E0BB279F57F0F02AED3FE049EC06C0DC
:102B5000EE0FBB0F661F771F881F28F0B23A62077F
:102B60007307840728F0B25A620B730B840BE3954A
:102B70009A9572F7803830F49A95BB0F661F771FCD
:102B8000881FD2F790480C94ED15EF93E0FF07C033
:102B9000A2EA2AED3FE049EC5FEB0E9498140E9404
:102BA0002C140F90039401FC9058E4EEF0E00C9488
:102BB000F9150E94811308F48FEF08959F930E94E6
:102BC0009C150F9007FCEE5F0C94C5150E948113B5
:102BD000880B990B08959F3F31F0915020F4879511
:102BE00077956795B795880F911D9695879597F975
:102BF00008959F938F937F936F93FF93EF939B0120
:102C0000AC010E94A513EF91FF910E940D162F9128
:102C10003F914F915F910C94A513DF93CF931F9336
:102C20000F93FF92EF92DF927B018C01689406C0B4
:102C3000DA2EEF010E94B813FE01E894A5912591C8
:102C4000359145915591A6F3EF010E949814FE012C
:102C50009701A801DA9469F7DF90EF90FF900F9148
:102C60001F91CF91DF91089597FB072E16F40094E2
:102C700007D077FD09D00E94721607FC05D03EF4FC
:102C8000909581959F4F0895709561957F4F089518
:102C9000A1E21A2EAA1BBB1BFD010DC0AA1FBB1F60
:102CA000EE1FFF1FA217B307E407F50720F0A21BD2
:102CB000B30BE40BF50B661F771F881F991F1A943F
:102CC00069F760957095809590959B01AC01BD0169
:102CD000CF010895EE0FFF1F881F8BBF0790F6915D
:102CE000E02D1994AA1BBB1B51E107C0AA1FBB1FF3
:102CF000A617B70710F0A61BB70B881F991F5A9588
:102D0000A9F780959095BC01CD010895FC018191B2
:102D1000861721F08823D9F7992708953197CF0195
:102D20000895FB01DC014150504030F08D9101903D
:102D3000801919F40020B9F7881B990B0895F894AD
:022D4000FFCFC3
:102D4200BC03BC03BC03BC03BC03BC03BC03BC0389
:102D52000000803F0000803F000000005304BD03DC
:102D6200EA03C0041B04F9030D040D0A006E616E30
:102D720000696E66006F76660053544F50005049EA
:102D82004E4700454E433F005345545F5452494D10
:102D9200005345545F504F5345005345545F524FC3
:0E2DA200424F545F56454C4F43495459000070
:00000001FF
