:100000000C94B3010C94E4010C94E4010C94E4010D
:100010000C94E4010C94E4010C94E4010C94E401CC
:100020000C94E4010C94E4010C94E4010C94E401BC
:100030000C94E4010C94E4010C94E4010C94E401AC
:100040000C94E4010C94E4010C94E4010C94E4019C
:100050000C94E4010C94E4010C94E4010C94A608C3
:100060000C94E4010C941A090C94F0080C94E4012B
:100070000C94E4010C94E4010C94E4010C94E4016C
:100080000C94E4010C94E4010C94E4010C94E4015C
:100090000C94E4010C94E4010C94E4010C94E4014C
:1000A0000C94E4010C94E4010C94E4010C94E4013C
:1000B0000C94E4010C94E4010C94E4010C94E4012C
:1000C0000C94E4010C94E4010C94E4010C94E4011C
:1000D0000C94E4010C94E4010C94E4010C94E4010C
:1000E0000C94E40105A84CCDB2D44EB93836A9021F
:1000F0000C50B9918688083CA6AAAA2ABE00000026
:10010000803F0C94BB040C9493030C9452030C9406
:100110000E020C9416020C9416040C943B020C94E0
:1001200019020C944E040C9404020C940D030C94CC
:10013000E5030C9412020C9475030C949D030C942B
:1001400015030C9438030C9423020C941F020C9496
:1001500040030C9437020C9449020C9466030C94EF
:1001600024030C9431020C9489030C9429020C94FE
:100170005C030C947F030C9408040C94B8030C9457
:100180003F020C94F4030C942D020C940A020C947C
:100190002E030C941A030C9445020C94A7030C94A0
:1001A00042130C9444020C9448034E414E494E496C
:1001B0005459494E46CDCCCC3D0AD7233C17B7D134
:1001C0003877CC2B329595E6241FB14F0A000020DA
:1001D000410000C84200401C4620BCBE4CCA1B0E59
:1001E0005AAEC59D745245414459206C6566742DC4
:1001F0007369676E2B70696400504F53455F4F4BB6
:100200000050494420005452494D20002052523D94
:100210000020524C3D002046523D00454E432046B2
:100220004C3D00504F4E470020433D0020523D00C2
:10023000204C3D002054683D0020593D00504F5354
:1002400020583D0000002100240027002A002D0036
:100250003000330001010000040107010A01000021
:100260002200250028002B002E003100340002015E
:100270000000050108010B010000200023002600FA
:1002800029002C002F0032000001000003010601AC
:10029000090105050505070508080808020202020C
:1002A0000A0A080804040404010101010101010112
:1002B0000303030303030303040707070C0C0C0CDD
:1002C0000C0C0C0C020202020606060606060606C6
:1002D0000B0B0B0B0B0B0B0B010210202008081053
:1002E00020401020408002010201080402010102A6
:1002F000040810204080804020100804020180047F
:1003000002018040201008040201080402010102D9
:1003100004081020408001020408102040800000E2
:100320000A0B02090C0D0E0807030401000000006F
:1003300000000000000000000000000000000000BD
:10034000000000000000000000001211100000007A
:10035000000000000000000000000000000000009D
:1003600000000000421311241FBECFEFD1E2DEBF18
:10037000CDBF00E00CBF23E0A2E7B2E001C01D92B8
:10038000A63FB207E1F712E0A0E0B2E0E4EAF0E352
:1003900000E00BBF02C007900D92A237B107D9F75A
:1003A00011E0C3EBD1E000E006C021970109802FE6
:1003B000FE010E942F18C23BD10780E00807A9F771
:1003C0000E9450090C9450180C9400008150823106
:1003D00008F05AC0E82FF0E08827EE50FE4F8F4F0C
:1003E0000C942F181202160204020A020E02440292
:1003F00019021F02230229022D02310237023B0299
:1004000044023F0245024902809180008F77809329
:1004100080000895809180008F7DF9CF80918000C9
:10042000877FF5CF84B58F7784BD089584B58F7DA0
:10043000FBCF8091B0008F778093B00008958091BA
:10044000B0008F7DF9CF809190008F7780939000DE
:100450000895809190008F7DF9CF80919000877FE3
:10046000F5CF8091A0008F778093A00008958091B0
:10047000A0008F7DF9CF8091A000877FF5CF80917C
:1004800020018F77809320010895809120018F7D36
:10049000F9CF80912001877FF5CFCF93DF93282F6D
:1004A00030E0F901E25EFC4F8491F901E852FD4F22
:1004B000D491F901EE56FD4FC491CC23A1F08111E6
:1004C0000E94E601EC2FF0E0EE0FFF1FE858FD4F11
:1004D000A591B491EC91ED2381E090E009F480E0E6
:1004E000DF91CF91089580E090E0FACF1F93CF93F2
:1004F000DF93282F30E0F901E25EFC4F8491F9018F
:10050000E852FD4FD491F901EE56FD4FC491CC2332
:10051000A9F0162F81110E94E601EC2FF0E0EE0FFA
:10052000FF1FE25AFD4FA591B4918FB7F894EC915B
:10053000111108C0D095DE23DC938FBFDF91CF91DE
:100540001F910895DE2BF8CFCF93DF9390E0FC014D
:10055000E852FD4F24918E569D4FFC0184918823D3
:10056000D1F090E0880F991FFC01EC5BFD4FA59145
:10057000B491FC01E25AFD4FC591D491623071F4FF
:100580009FB7F8943C91822F809583238C93E881C8
:100590002E2B28839FBFDF91CF9108958FB7F894BA
:1005A000EC912E2B2C938FBFF6CF1F93CF93DF931D
:1005B000182FEB0161E00E94A402209739F460E05B
:1005C000812FDF91CF911F910C947602CF3FD105FF
:1005D00011F461E0F5CFE12FF0E0E25EFC4FE49131
:1005E000E150E23108F0B3C0F0E08827E550FD4F5C
:1005F0008F4F0C942F180D0315031A0324032E0399
:10060000A70338034003480352035C0366037503E2
:100610007F03A703890393039D0384B5806884BD8A
:10062000C7BDDF91CF911F91089584B5806284BDCD
:10063000C8BDF7CF80918000806880938000D09300
:100640008900C0938800EDCF809180008062809304
:100650008000D0938B00C0938A00E3CF809180000C
:10066000886080938000D0938D00C0938C00D9CF98
:100670008091B00080688093B000C093B300D1CF68
:100680008091B00080628093B000C093B400C9CF65
:1006900080919000806880939000D0939900C093DF
:1006A0009800BFCF80919000806280939000D0939B
:1006B0009B00C0939A00B5CF809190008860809392
:1006C0009000D0939D00C0939C00ABCF8091A00080
:1006D00080688093A0008091A0008F7B8093A00011
:1006E000D093A900C093A8009CCF8091A000806205
:1006F0008093A000D093AB00C093AA0092CF8091CA
:10070000A00088608093A000D093AD00C093AC009F
:1007100088CF80912001806880932001D0932901A7
:10072000C09328017ECF80912001806280932001B8
:10073000D0932B01C0932A0174CF8091200188604F
:1007400080932001D0932D01C0932C016ACFC03833
:10075000D1050CF03ECF33CF2FB7F89460915303FF
:100760007091540380915503909156032FBF0895C3
:10077000AF92BF92CF92DF92EF92FF920F931F93AF
:10078000CF93DF936C017B018B01040F151FEB01ED
:100790005E01AE18BF08C017D10759F06991D601A4
:1007A000ED91FC910190F081E02DC6011995892B06
:1007B00079F7C501DF91CF911F910F91FF90EF90D5
:1007C000DF90CF90BF90AF900895FC01538D448D82
:1007D000252F30E0842F90E0821B930B541710F0EC
:1007E000CF96089501970895FC01918D828D9817F9
:1007F00061F0A28DAE0FBF2FB11D5D968C91928DD1
:100800009F5F9F73928F90E008958FEF9FEF089501
:10081000FC01918D828D981731F0828DE80FF11DCA
:10082000858D90E008958FEF9FEF0895FC01918DE5
:10083000228D892F90E0805C9F4F821B91098F73DE
:100840009927089587E593E00E94160421E0892BFB
:1008500009F420E0822F0895FC01A48DA80FB92F80
:10086000B11DA35ABF4F2C91848D90E001968F73D8
:100870009927848FA689B7892C93A089B1898C91F7
:10088000837080648C93938D848D981306C0028846
:10089000F389E02D80818F7D80830895EF92FF9210
:1008A0000F931F93CF93DF93EC0181E0888F9B8D93
:1008B0008C8D98131AC0E889F989808185FF15C04D
:1008C0009FB7F894EE89FF896083E889F989808170
:1008D0008370806480839FBF81E090E0DF91CF913F
:1008E0001F910F91FF90EF900895F62E0B8D10E061
:1008F0000F5F1F4F0F731127E02E8C8D8E110CC0D0
:100900000FB607FCFACFE889F989808185FFF5CF1A
:10091000CE010E942C04F1CFEB8DEC0FFD2FF11DC9
:10092000E35AFF4FF0829FB7F8940B8FEA89FB8957
:1009300080818062CFCF682F87E593E00C944E04CE
:100940000F931F93CF93DF938C01D0E0C0E0F801A9
:10095000EC0FFD1F6491662341F087E593E00E9450
:100960004E04892B11F02196F2CFCE01DF91CF9169
:100970001F910F910895CF93DF93EC01888D882309
:10098000B9F0AA89BB89E889F9898C9185FD03C0F2
:10099000808186FD0DC00FB607FCF7CF8C9185FFD7
:1009A000F2CF808185FFEDCFCE010E942C04E9CFEC
:1009B000DF91CF91089580E090E0892B29F00E948B
:1009C000220481110E94000080E090E0892B49F010
:1009D00080E090E0892B29F00E94000081110E94A4
:1009E000000080E090E0892B49F080E090E0892BC6
:1009F00029F00E94000081110E94000080E090E038
:100A0000892B49F080E090E0892B29F00E940000BA
:100A100081110C940000089520914C0330914D03F6
:100A200037FF03C031952195310970914A036091D8
:100A30004B03509148034091490328323105BCF0E3
:100A4000872F962F97FF03C0919581959109880F65
:100A5000991F281739075CF0252F342F37FF03C063
:100A600031952195310981E0243631050CF080E083
:100A7000089510920B0310920C0310920D03109224
:100A80000E031092070310920803109209031092AC
:100A90000A031092030310920403109205031092AC
:100AA000060310922403109225031092260310923D
:100AB0002703109213030895CF92DF92EF92FF92D3
:100AC0000F931F93CF936C017B018A010E940C0549
:100AD000C82FD0924D03C0924C03F0924B03E0928A
:100AE0004A0310934903009348030E94AC036093A8
:100AF00044037093450380934603909347030E94F9
:100B00000C05811109C0CF911F910F91FF90EF90BB
:100B1000DF90CF900C943905CC23A9F3CF911F918E
:100B20000F91FF90EF90DF90CF9008958F3F910548
:100B300019F014F08FEF90E097FF02C090E080E092
:100B40009C01215031092534310510F486E490E0F0
:100B50000895EF92FF920F931F93CF93DF93C82FC7
:100B6000862FD42F209FA001219F500D309F500D24
:100B7000112441305105A1F461E00E94760260E049
:100B80008D2F0E947602C7010E949605BC018C2F12
:100B9000DF91CF911F910F91FF90EF900C94D502B0
:100BA00060E04F3F5F4F21F40E94760261E0E8CFA2
:100BB0000E94760260E08D2F0E94760270E060E075
:100BC000E6CFEF92FF920F931F93F12CE12C0FEFE2
:100BD0001FEF30E020E04AE069E088E00E94A905CC
:100BE00001E010E030E020E046E065E087E00E94B0
:100BF000A9050FEF1FEF30E020E04CE06BE08DE047
:100C00000E94A90501E010E030E020E044E063E04C
:100C100082E00E94A90510924903109248031092A5
:100C20004B0310924A0310924D0310924C031F91F4
:100C30000F91FF90EF900C9439052F923F924F92B5
:100C40005F926F927F928F929F92AF92BF92CF925C
:100C5000DF92EF92FF920F931F93CF93DF9300D019
:100C6000CDB7DEB7982E862E4983390117012801AA
:100C70002DEC3CEC4CE45DE3C801B7010E94B217D7
:100C800018160CF43FC02DEC3CEC4CE45DEBC801B5
:100C9000B7010E94181587FF38C08FEF9FEF9B8325
:100CA0008A83C201B1019F77A60195010E947E153A
:100CB00020E030E040E05FE30E945A160E943D17BA
:100CC000CB010E9496057C0183012A813B814981E9
:100CD000682D892D0E94A9050F900F900F90DF912C
:100CE000CF911F910F91FF90EF90DF90CF90BF9029
:100CF000AF909F908F907F906F905F904F903F90BC
:100D00002F90089581E090E0CACF1B821A8290E074
:100D100080E0D9CF0F931F93F901DA019C919817C6
:100D200099F08C93012E000C220B330B86130FC00D
:100D300080819181A281B381800F911FA21FB31F77
:100D400080839183A283B3831F910F910895808143
:100D50009181A281B381801B910BA20BB30BF0CFC9
:100D60000F931F93CF9383E30E944D02C82F82E31A
:100D70000E944D020FEF1FEF28E133E045E752E0FC
:100D80006C2F0E948A0681E30E944D02C82F80E3E7
:100D90000E944D0201E010E020E233E044E752E01F
:100DA0006C2F0E948A0685E30E944D02C82F84E3BF
:100DB0000E944D020FEF1FEF24E133E043E752E0C2
:100DC0006C2F0E948A068FE20E944D02C82F8EE28D
:100DD0000E944D022CE133E042E752E06C2F0E946A
:100DE0008A06CF911F910F910895FC010190002078
:100DF000E9F73197AF01481B590BBC0187E593E038
:100E00000C94B8038F929F92AF92BF920F931F934F
:100E1000CF93DF93CDB7DEB7A1970FB6F894DEBFBF
:100E20000FBECDBF19A2423008F44AE08E010F5D1B
:100E30001F4F842E912CB12CA12CA50194010E944E
:100E40000D18E62FB901CA01EA30F4F4E05DD801CB
:100E5000EE938D01232B242B252B79F790E080E056
:100E6000109719F0CD010E94F506A1960FB6F894DF
:100E7000DEBF0FBECDBFDF91CF911F910F91BF900D
:100E8000AF909F908F900895E95CE1CFCF93DF936F
:100E90000E94A004EC0186E292E00E94F5068C0F0D
:100EA0009D1FDF91CF9108954F925F926F927F9235
:100EB0008F929F92AF92BF92CF92DF92EF92FF926A
:100EC0000F931F93CF936B017C01742EAC019B0198
:100ED0000E94BF17882399F089E292E0CF911F9179
:100EE0000F91FF90EF90DF90CF90BF90AF909F90C9
:100EF0008F907F906F905F904F900C94F506460115
:100F00005701E894B7F82FEF3FEF4FE75FE7C501D0
:100F1000B4010E94BF1781110DC02FEF3FEF4FE7C3
:100F20005FE7C501B4010E94181518161CF48DE284
:100F300092E0D4CF2FEF3FEF4FE75FE4C701B60158
:100F40000E94B21718161CF481E392E0C7CF2FEF6E
:100F50003FEF4FE75FECC701B6010E94181587FD10
:100F6000F3CF20E030E0A901C701B6010E941815B7
:100F700010E000E087FF08C08DE20E949B048C0116
:100F8000F7FAF094F7F8F094C0E060E070E080E0E9
:100F90009FE37C1641F020E030E040E251E40E9403
:100FA000CB16CF5FF6CFA70196010E945A162B01F0
:100FB0003C010E9444174B015C014AE00E94020779
:100FC0007C01E00EF11ECC23B1F1C501B4010E94F9
:100FD0001D159B01AC01C301B2010E9459164B01C2
:100FE0005C018EE20E949B04E80EF91EC15018F1CC
:100FF00020E030E040E251E4C501B4010E947E15DA
:101000002B013C010E9444174B01B12CA12C4AE05A
:10101000C501B4010E940207E80EF91EC501B40122
:101020000E941D159B01AC01C301B2010E9459161B
:101030004B015C01DBCFC701CF911F910F91FF9056
:10104000EF90DF90CF90BF90AF909F908F907F9068
:101050006F905F904F900895CF93DF930E94540755
:10106000EC0186E292E00E94F5068C0F9D1FDF9155
:10107000CF910895CF92DF92EF92FF92CF93DF93BB
:1010800097FF19C06B017C018DE20E949B04EC016B
:1010900066277727CB016C197D098E099F094AE0E5
:1010A0000E9402078C0F9D1FDF91CF91FF90EF9060
:1010B000DF90CF9008954AE0DF91CF91FF90EF90BD
:1010C000DF90CF900C9402070F931F93CF93DF9381
:1010D0008C01DC01CD91DC919E012F5F3F4F888117
:1010E000803281F0CE010E946F13FE012196208193
:1010F0002F7DD9F7D801ED93FC93DF91CF911F910C
:101100000F910895E901E8CF0F931F93CF93DF93D9
:101110008C01DC01CD91DC919E012F5F3F4F8881D6
:10112000803291F0CE010E9473139C01FE01219642
:1011300090819F7DD9F7D801ED93FC93C901DF9190
:10114000CF911F910F910895E901E6CF1F920F9261
:101150000FB60F9211242F933F938F939F93AF93CA
:10116000BF938091530390915403A0915503B09184
:1011700056033091520323E0230F2D3758F5019683
:10118000A11DB11D209352038093530390935403E8
:10119000A0935503B093560380914E0390914F0353
:1011A000A0915003B09151030196A11DB11D8093F0
:1011B0004E0390934F03A0935003B0935103BF91FC
:1011C000AF919F918F913F912F910F900FBE0F90F4
:1011D0001F90189526E8230F0296A11DB11DD2CFAE
:1011E0001F920F920FB60F9211240BB60F922F93EE
:1011F0003F934F935F936F937F938F939F93AF939F
:10120000BF93EF93FF9387E593E00E942C04FF9137
:10121000EF91BF91AF919F918F917F916F915F916E
:101220004F913F912F910F900BBE0F900FBE0F90DB
:101230001F9018951F920F920FB60F9211240BB6A4
:101240000F922F938F939F93EF93FF93E0916703F8
:10125000F09168038081E0916D03F0916E0382FD4F
:101260001DC09081809170038F5F8F7320917103F7
:10127000821741F0E0917003F0E0E95AFC4F958F3E
:1012800080937003FF91EF919F918F912F910F9019
:101290000BBE0F900FBE0F901F9018958081F2CF5C
:1012A000CF93DF93CDB7DEB7A2970FB6F894DEBF2A
:1012B0000FBECDBF789484B5826084BD84B5816053
:1012C00084BD85B5826085BD85B5816085BD809111
:1012D0006E00816080936E00109281008091810089
:1012E0008260809381008091810081608093810081
:1012F000809180008160809380008091B100846043
:101300008093B1008091B00081608093B0008091A3
:101310009100826080939100809191008160809320
:101320009100809190008160809390008091A10055
:1013300082608093A1008091A10081608093A100D0
:101340008091A00081608093A00080912101826043
:1013500080932101809121018160809321018091FE
:10136000200181608093200180917A0084608093C5
:101370007A0080917A00826080937A0080917A006E
:10138000816080937A0080917A00806880937A00EF
:101390001092C100E0916703F091680382E08083BE
:1013A000E0916303F09164031082E0916503F09192
:1013B000660380E1808310926F03E0916B03F091EC
:1013C0006C0386E08083E0916903F0916A03808179
:1013D00080618083E0916903F0916A038081886075
:1013E0008083E0916903F0916A0380818068808343
:1013F000E0916903F0916A0380818F7D808362E0D0
:1014000082E30E94A40262E083E30E94A40262E0FD
:1014100080E30E94A40262E081E30E94A40262E0F1
:1014200084E30E94A40262E085E30E94A40262E0D9
:101430008EE20E94A40262E08FE20E94A40282E394
:101440000E944D028093750280E30E944D028093BA
:10145000740284E30E944D02809373028EE20E9424
:101460004D028093720261E089E00E94A40261E073
:101470008AE00E94A40261E088E00E94A40261E088
:1014800085E00E94A40261E086E00E94A40261E07F
:1014900087E00E94A40261E08BE00E94A40261E068
:1014A0008CE00E94A40261E08DE00E94A40261E051
:1014B00083E00E94A40261E084E00E94A40261E053
:1014C00082E00E94A4020E94E1050E94AC036093A6
:1014D000440370934503809346039093470385EE3E
:1014E00091E00E9446070E94B00687E593E00E94C3
:1014F0001604181619060CF093C287E593E00E94B3
:10150000F403E09102038A3019F08D3009F07CC2B7
:10151000EE2359F3F0E0EA58FD4F108290917602E5
:10152000992309F43FC08091770281113EC0892F31
:101530008F7D873549F450E040E070E060E084EF53
:1015400091E00E945C052EC0833539F450E040E004
:1015500070E060E08CE09EEFF4CF50E040E064EF9C
:1015600071E0813431F0843439F450E040E06CE0D3
:101570007EEF90E080E0E5CF813511F08A3529F4E7
:101580004CED55E070E060E0F4CF853411F0833429
:1015900019F444E25AEFF6CF883511F0903229F46D
:1015A0000E94E10510920203A0CF44E050E065E301
:1015B00072E086E792E00E944218892B89F344E0AA
:1015C00050E06AE372E086E792E00E944218892BBD
:1015D00029F483E292E00E944607E4CF44E050E021
:1015E0006FE372E086E792E00E944218892BE9F5EA
:1015F0008BE192E00E94A00460911803709119039E
:1016000080911A0390911B030E943A0886E192E0B0
:101610000E94A00460912003709121038091220315
:10162000909123030E943A0881E192E00E94A00475
:101630006091140370911503809116039091170324
:101640000E943A088CE092E00E94A00460911C0382
:1016500070911D0380911E0390911F030E943A0810
:1016600086E292E00E94F5069DCF48E050E064E4F7
:1016700072E086E792E00E944218892B09F061C06F
:101680001EE7C12E12E0D12EDA82C982CE01019668
:101690000E9484087C01CE0101960E9484088C017E
:1016A000C701C29785369105A0F4B701FF0C880BDE
:1016B000990B0E941F1520E030E048EC52E40E9494
:1016C000CB166093100270931102809312029093D4
:1016D0001302C801C29785369105A0F4B801110F15
:1016E000880B990B0E941F1520E030E048EC52E473
:1016F0000E94CB1660930C0270930D0280930E0231
:1017000090930F0286E092E00E94A0046091100284
:1017100070911102809112029091130242E00E9496
:10172000540780E20E949B0460910C0270910D02AC
:1017300080910E0290910F0242E050E00E942C082E
:1017400031CF47E050E06DE472E086E792E00E941E
:101750004218892B09F0ACC0BDE7EB2EB2E0FB2E9E
:10176000FA82E982CE0101960E9464086B017C0135
:1017700020E030E0A9010E94181587FD8DC020E00F
:1017800030E040EA51E4C701B6010E94B2171816D2
:1017900034F4C12CD12CA0EAEA2EA1E4FA2EC09296
:1017A0000802D0920902E0920A02F0920B02CE01E6
:1017B00001960E9464086B017C0120E030E0A901E1
:1017C0000E94181587FD6CC020E030E040EA50E42C
:1017D000C701B6010E94B217181634F4C12CD12CDF
:1017E000F0EAEF2EF0E4FF2EC0920402D092050240
:1017F000E0920602F0920702CE0101960E94640870
:101800006B017C0120E030E0A9010E94181587FDE2
:101810004BC020E030E040EA50E4C701B6010E942E
:10182000B217181634F4C12CD12CE0EAEE2EE0E405
:10183000FE2EC0920002D0920102E0920202F092CB
:1018400003020E94390581E092E00E94A0046091A9
:1018500008027091090280910A0290910B0242E005
:101860000E94540780E20E949B04609104027091E0
:101870000502809106029091070242E00E945407FF
:1018800080E20E949B0460910002709101028091AD
:1018900002029091030250CFC12CD12C76017FCF50
:1018A000C12CD12C7601A0CFC12CD12C7601C1CF77
:1018B00048E050E065E572E086E792E00E94421859
:1018C0007EE7E72E72E0F72E892BF9F042E150E037
:1018D0006EE572E086E792E00E944218892B09F0DB
:1018E00061CEE8E8F2E0FA83E983CE0101960E9436
:1018F00084087C01E981FA818081803209F050C03E
:101900003196FA83E983F6CF790197012F5F3F4F34
:10191000D7018C918032C1F3C7010E946F1360938D
:101920003003709331038093320390933303870124
:10193000F7018191882351F0803271F58701BFEF63
:10194000EB1AFB0AF80180818032C1F3C8010E94C2
:101950006F1360932C0370932D0380932E03909349
:101960002F03C801F8014191442349F04032B1F4FA
:10197000C8010F5F1F4FDC014C914032C9F30E9438
:101980006F13609328037093290380932A03909325
:101990002B0389EF91E01FCE7F01C9CF8F01E1CFEB
:1019A00050E040E0882309F46AC6CE0101960E9407
:1019B00084086C0109811A81D8018C91803229F444
:1019C0000F5F1F4F1A830983F5CF882309F456C68A
:1019D0006EE270E0C8010E943718892B81F0C801BF
:1019E0000E946F1320E030E04AE754E40E947E1525
:1019F0000E943D17CB01AC01B601C701A2CDCE01BB
:101A000001960E948408F7CFEB3808F0CBCD91E027
:101A10009E0F90930203F0E0EA58FD4F808365CD5E
:101A20000E94B0060E94AC036B877C878D879E87DF
:101A300080914C0390914D03892B61F480914A036E
:101A400090914B03892B31F4809148039091490385
:101A5000892BC9F08091440390914503A0914603DE
:101A6000B0914703CB84DC84ED84FE84C81AD90A84
:101A7000EA0AFB0AD701C60181399140A105B105E7
:101A800010F00E94E1058091400390914103A091E4
:101A90004203B09143032B853C854D855E85281B11
:101AA000390B4A0B5B0BCA01B9016931710581051C
:101AB000910508F42EC30E941D152FE632E143E87C
:101AC0005AE30E947E152B013C012FE832EC45EFD2
:101AD0005DE30E94B217181644F46FE8462E62ECDC
:101AE000562E65EF662E6DE3762E4B855C856D85F3
:101AF0007E8540934003509341036093420370936B
:101B000043038090180390901903A0901A03B0909B
:101B10001B038091140390911503A0911603B091BB
:101B20001703880E991EAA1EBB1E00912003109158
:101B30002103209122033091230380911C03909173
:101B40001D03A0911E03B0911F0368017901C80E07
:101B5000D91EEA1EFB1ECF82D886E986FA868091BE
:101B60003C0390913D03A0913E03B0913F0385015A
:101B70007401E81AF90A0A0B1B0BC801B70100919E
:101B800038031091390320913A0330913B03CF8001
:101B9000D884E984FA84C01AD10AE20AF30ACB8213
:101BA000DC82ED82FE8280923C0390923D03A09203
:101BB0003E03B0923F03EF80F88409851A85E092D6
:101BC0003803F092390300933A0310933B030091DA
:101BD0004C0310914D0320904A0330904B03C0906A
:101BE0004803D0904903D886CF820115110531F4FE
:101BF0002114310419F4CD2809F48BC20E941F1559
:101C00006F87788B898B9A8B20E030E040E05FE330
:101C10000E947E1522EE3CE543E251E40E947E15CF
:101C20004B015C016B817C818D819E810E941F151F
:101C30006B8B7C8B8D8B9E8B20E030E040E05FE3F4
:101C40000E947E1522EE3CE543E251E40E947E159F
:101C50006B017C01AC019B01C501B4010E945A16C5
:101C600020E030E040E05FE30E947E156B837C83E0
:101C70008D839E83A5019401C701B6010E94591668
:101C800020E030E04CE054E40E94CB162091280381
:101C90003091290340912A0350912B030E945A1638
:101CA0006B017C012BED3FE049E450E40E94B21748
:101CB00018164CF42BED3FE049EC50E4C701B60197
:101CC0000E945916EDCF2BED3FE049E450ECC701DF
:101CD000B6010E94181587FF0BC02BED3FE049ECC1
:101CE00050E4C701B6010E945A166B017C01EBCF8C
:101CF000C0922803D0922903E0922A03F0922B038A
:101D0000C701B6010E94C6164B015C01AC019B01E4
:101D10006B817C818D819E810E947E152091300394
:101D20003091310340913203509133030E945A168F
:101D30006F8B788F898F9A8F609330037093310304
:101D40008093320390933303C701B6010E94B71703
:101D50006B017C01AC019B016B817C818D819E813B
:101D60000E947E1520912C0330912D0340912E036B
:101D700050912F030E945A166B8F7C8F8D8F9E8FF0
:101D800060932C0370932D0380932E0390932F0365
:101D90003C822B8237FE06C02227332722193309C3
:101DA0003C832B834B815C814F3151050CF440C047
:101DB000B101032C000C880B990B0E941F156F8F2B
:101DC00078A389A39AA3C701B60190582F8D38A193
:101DD00049A15AA10E947E15A30192010E947E157D
:101DE0002F89388D498D5A8D0E945A166093300381
:101DF0007093310380933203909333032F8D38A176
:101E000049A15AA1C501B4010E947E15A301920106
:101E10000E947E152B8D3C8D4D8D5E8D0E945A1635
:101E200060932C0370932D0380932E0390932F03C4
:101E30000E940C05882309F44DC12FE632E143E8E6
:101E40005AE3C301B2010E94181587FD43C1809176
:101E5000130381112DC051E0509313030E94AC0372
:101E600060930F03709310038093110390931203F8
:101E700010920B0310920C0310920D0310920E039C
:101E800010920703109208031092090310920A039C
:101E9000109203031092040310920503109206039C
:101EA0001092240310922503109226031092270308
:101EB0002B893C894D895E896F85788989899A89C2
:101EC0000E9459164B015C019F772AE939E949E9DB
:101ED0005EE30E94181587FF03C0812C912C5401EA
:101EE00026E636E646E65FE360910B0370910C034D
:101EF00080910D0390910E030E947E156B017C0171
:101F0000A5019401C301B2010E947E159B01AC01A1
:101F1000C701B6010E945A166B017C0120E030E037
:101F200040EA51EC0E94181587FD8BC120E030E09B
:101F300040EA51E4C701B6010E94B217181634F402
:101F4000C12CD12C50EAE52E51E4F52EC0920B03A2
:101F5000D0920C03E0920D03F0920E032091070340
:101F6000309108034091090350910A03C501B4015F
:101F70000E945916A30192010E94CB162B013C012D
:101F80008092070390920803A0920903B0920A037B
:101F9000209108023091090240910A0250910B02EF
:101FA000C501B4010E947E154B015C012091040221
:101FB000309105024091060250910702C701B60117
:101FC0000E947E159B01AC01C501B4010E945A1606
:101FD0006B017C01209100023091010240910202CC
:101FE00050910302C301B2010E947E159B01AC0116
:101FF000C701B6010E945A166B017C0120E030E057
:1020000044EB52EC0E94181587FD22C120E030E01D
:1020100044EB52E4C701B6010E94B217181634F41B
:10202000C12CD12C34EBE32E32E4F32E8090030349
:1020300090900403A0900503B0900603A5019401BD
:10204000C701B6010E94591620E030E040E05FE38E
:102050000E947E15A50194010E945A166093030305
:1020600070930403809305039093060380902403E8
:1020700090902503A0902603B0902703A50194011A
:102080000E9459166B017C0120E030E040E051ECE9
:102090000E94181587FDE3C020E030E040E051E4E5
:1020A000C701B6010E94B21718162CF4C12CD12C0E
:1020B000E12C91E4F92EA7019601C501B4010E941B
:1020C0005A166093240370932503809326039093FC
:1020D000270302C00E943905C80117FF04C08827E2
:1020E0009927801B910B4E970CF0BFC06B817C81B0
:1020F0006E3171050CF0B9C08F81988597FF03C0D0
:10210000919581959109803591050CF0AEC00E94A2
:10211000E1058091340390913503A0913603B0918D
:102120003703CB84DC84ED84FE84C81AD90AEA0A1A
:10213000FB0AD701C60180359105A105B10508F458
:102140007DC0EB84FC840D851E85E0923403F09203
:10215000350300933603109337038DE392E00E941A
:10216000A00460913003709131038091320390910B
:10217000330342E00E94540789E392E00E94A004E6
:1021800060912C0370912D0380912E0390912F0369
:1021900042E00E94540784E392E00E94A004609110
:1021A00028037091290380912A0390912B0342E028
:1021B0000E94540780E392E00E94A00460911803FB
:1021C0007091190380911A0390911B0300911403DD
:1021D000109115032091160330911703600F711FA2
:1021E000821F931F0E943A088CE292E00E94A00492
:1021F0006091200370912103809122039091230329
:1022000000911C0310911D0320911E0330911F03A8
:10221000600F711F821F931F0E943A0888E292E0AC
:102220000E94A004609124037091250380912603ED
:102230009091270341E050E00E942C080E94DB04AB
:1022400052C9C12CD12C40EAE42E41ECF42E7ECEB2
:10225000C12CD12C24EBE22E22ECF22EE7CEC12CA5
:10226000D12CE12C81ECF82E26CF0E940C0588237E
:1022700009F46CC180911303882309F45DC10E94A5
:10228000AC03C0900F03D0901003E0901103F090C6
:1022900012036C197D098E099F096A3F710581053A
:1022A000910508F04EC10E941D1520E030E04AE77C
:1022B00053E40E94CB1626E636E646EE5EE30E9425
:1022C0007E152DEC3CEC4CE05FE30E945A1620E0BA
:1022D00030E048E453E40E947E156B837C838D8359
:1022E0009E83B801012E000C880B990B0E941F15CC
:1022F00020E030E04AEF53E40E94CB166B017C01F2
:1023000023E333E343E95FEB0E94181587FD27C100
:1023100023E333E343E95FE3C701B6010E94B21749
:1023200018163CF4B3E3CB2EDC2CB3E9EB2EBFE361
:10233000FB2EB101330C880B990B0E941F1520E076
:1023400030E04AEF53E40E94CB164B015C0123E3DB
:1023500033E343E95FEB0E94181587FD08C123E3CF
:1023600033E343E95FE3C501B4010E94B2171816D5
:102370003CF4F3E38F2E982CF3E9AF2EFFE3BF2E4E
:10238000AF81B885BD01BB0F880B990B0E941F154B
:1023900020E030E84BEB54E40E94CB162B013C01CB
:1023A00023E333E343E95FEB0E94181587FDE7C0A1
:1023B00023E333E343E95FE3C301B2010E94B217B1
:1023C00018163CF473E3472E542C73E9672E7FE311
:1023D000772E0E940C05882309F4E7C0C0902403DF
:1023E000D0902503E0902603F090270317FF04C048
:1023F000F7FAF094F7F8F09420911002309111025E
:1024000040911202509113026B817C818D819E81DB
:102410000E947E15A70196010E9459162B013C01CE
:1024200020910C0230910D0240910E0250910F024A
:102430006B817C818D819E810E947E15A701960112
:102440000E945A164B015C0120E030E04CE852E457
:10245000C301B2010E94181587FD99C020E030E049
:102460004FE753E4C301B2010E94B217181634F4C7
:10247000412C512C5FE7652E53E4752E20E030E0AF
:102480004CE852E4C501B4010E94181587FD86C0CE
:1024900020E030E04FE753E4C501B4010E94B217D9
:1024A000181634F4812C912C3FE7A32E33E4B32E7D
:1024B000CC24C394D12C101611061CF0CC24CA9441
:1024C000DC2C20E030E040E05FE3C301B2010E9479
:1024D0005A160E943D172B017B010FEF1FEF96014B
:1024E0004AE069E088E00E94A90520E030E040E091
:1024F0005FE3C501B4010E945A160E943D174B01CB
:102500007B0101E010E0960146E065E087E00E9473
:10251000A90572010FEF1FEF96014CE06BE08DE013
:102520000E94A905740101E010E0960144E063E017
:1025300082E00E94A905EDCD6DEC7CEC8CE09FE380
:10254000C6CE60E070E080E89FE3C1CE80E090E01E
:10255000A8E4B3E48B839C83AD83BE83C2CEA3E3A4
:10256000CA2EDC2CA3E9EA2EAFEBFA2EE2CEE3E38F
:102570008E2E982CE3E9AE2EEFEBBE2E01CF63E357
:10258000462E542C63E9662E6FEB762E22CF412C1B
:10259000512C4CE8642E42E4742E70CF812C912C87
:1025A0002CE8A22E22E4B22E83CFA5019401C7010C
:1025B000B6010E9459166F83788789879A87A5018B
:1025C0009401C701B6010E945A166F87788B898BD8
:1025D0009A8BA30192016F81788589859A850E94E3
:1025E0005916AB80BC80CD80DE807B018C012FEF43
:1025F0003FEF4AE069E088E00E941D062F85388998
:1026000049895A89C301B2010E945A16AB80BC8025
:10261000CD80DE807B018C0121E030E046E065E08A
:1026200087E00E941D06A30192016F857889898940
:102630009A890E945916AB80BC80CD80DE807B01D8
:102640008C012FEF3FEF4CE06BE08DE00E941D0608
:10265000A30192016F81788589859A850E945A1617
:10266000AB80BC80CD80DE807B018C0121E030E03E
:1026700044E063E082E00E941D064BCDA60170E0BD
:1026800060E0BBC9E7E5F3E01382128288EE93E0D5
:10269000A0E0B0E084839583A683B78388E192E0CD
:1026A0009183808385EC90E09587848784EC90E02B
:1026B0009787868780EC90E0918B808B81EC90E00F
:1026C000938B828B82EC90E0958B848B86EC90E0F0
:1026D000978B868B118E128E138E148E089566271B
:1026E00077270C949913FC0188279927E894219166
:1026F0002032E9F3293010F02E30C8F32B3241F0AC
:102700002D3239F4689404C00E949113820F911DF8
:10271000219120532A30C0F31EF4909581959F4F4C
:1027200008957AE0979F902D879F802D910D112419
:1027300008958F929F92AF92BF92CF92DF92EF92C5
:10274000FF920F931F93CF93DF935C017B01611581
:10275000710519F0DB018D939C9385010F5F1F4F6D
:10276000F501D0818D2F90E00E94F7146C01892B28
:10277000B9F5DD32B9F50F5F1F4FD5011196DC9128
:10278000C1E05801F1E0AF1AB10843E050E062EB5C
:1027900071E0C5010E940015892B69F5680182E08E
:1027A000C80ED11C45E050E06DEA71E0C6010E9400
:1027B0000015892B21F4680197E0C90ED11CE114A2
:1027C000F10419F0D701CD92DC9260E070E080E86E
:1027D0009FEFC111FFC060E070E080E89FE7FAC0A2
:1027E0005801BBCFDB3229F485010E5F1F4FF50185
:1027F000D181C0E0C6CF43E050E06AEA71E0C50194
:102800000E940015892BE9F0F80110E000E020E0BB
:1028100030E0A9015F01B0ED8B2E8D0E89E08815A7
:10282000C8F19C2E689491F88C2F8870C2FF16C056
:10283000811102C00F5F1F4F3196D501DC91C92D68
:10284000E9CFE114F10429F00E5F1F4FF701118366
:10285000008360E070E080EC9FE7BCC0882311F04B
:1028600001501109A5E0B0E00E943F169B01AC01A8
:10287000220F331F441F551F280D311D411D511DAF
:10288000283999E93907490799E15907A8F2C6603B
:102890009C2ED2CFAEEF8A1206C0C3FD3CC09C2E48
:1028A000689493F8C9CFDF7DD534A9F580818D3246
:1028B00039F4C061DF011296818162E070E006C0E8
:1028C000DF018B32C1F3119661E070E080535D014E
:1028D000A61AB70A8A30F8F4E0E8CE16ECE0DE0675
:1028E0005CF4B601660F771F660F771FC60ED71E02
:1028F000CC0CDD1CC80ED11C5D01FFEFAF1ABF0A66
:102900008C9180538A30A8F1C4FF03C0D194C19444
:10291000D1080C0D1D1DC1FF09C0E114F10431F0F7
:1029200081E0A81AB108D701AD92BC92CA01B901E1
:102930000E941D15C370C33009F490584B015C010F
:1029400020E030E0A9010E941815882309F440C056
:10295000C1EED1E017FF05C0119501951109C9EC31
:10296000D1E06E01B8E1CB1AD10880E2E82EF12C5B
:102970000FC0D501B1CFFE012591359145915491FC
:102980000E191F09C501B4010E947E154B015C019F
:10299000D501C4010E151F0574F72497F594E7942B
:1029A000CC16DD06A9F78A2F880F8B2F881F8F3F43
:1029B00049F020E030E0A901C501B4010E941815DA
:1029C000811106C082E290E09093F5038093F403B6
:1029D000C501B401DF91CF911F910F91FF90EF904E
:1029E000DF90CF90BF90AF909F908F9008959111FE
:1029F0000C94EB15803219F089508550C8F7089572
:102A0000FB01DC014150504088F08D9181341CF075
:102A10008B350CF4805E659161341CF06B350CF4E1
:102A2000605E861B611171F3990B0895881BFCCFC2
:102A30000E945A1508F481E00895E89409C097FBB4
:102A40003EF490958095709561957F4F8F4F9F4F85
:102A50009923A9F0F92F96E9BB279395F6958795C9
:102A600077956795B795F111F8CFFAF4BB0F11F48C
:102A700060FF1BC06F5F7F4F8F4F9F4F16C0882333
:102A800011F096E911C0772321F09EE8872F762F69
:102A900005C0662371F096E8862F70E060E02AF0AA
:102AA0009A95660F771F881FDAF7880F9695879596
:102AB00097F90895990F0008550FAA0BE0E8FEEF6B
:102AC00016161706E807F907C0F012161306E407F2
:102AD000F50798F0621B730B840B950B39F40A26EB
:102AE00061F0232B242B252B21F408950A2609F4C9
:102AF000A140A6958FEF811D811D08950E9491151B
:102B00000C9405160E94F71538F00E94FE1520F06F
:102B1000952311F00C94EE150C94F41511240C94DB
:102B200039160E94161670F3959FC1F3950F50E069
:102B3000551F629FF001729FBB27F00DB11D639F6F
:102B4000AA27F00DB11DAA1F649F6627B00DA11D15
:102B5000661F829F2227B00DA11D621F739FB00DBB
:102B6000A11D621F839FA00D611D221F749F33272B
:102B7000A00D611D231F849F600D211D822F762FC4
:102B80006A2F11249F5750409AF0F1F088234AF0A1
:102B9000EE0FFF1FBB1F661F771F881F915050400D
:102BA000A9F79E3F510580F00C94EE150C94391650
:102BB0005F3FE4F3983ED4F3869577956795B79594
:102BC000F795E7959F5FC1F7FE2B880F911D9695AE
:102BD000879597F9089599278827089597F99F670A
:102BE00080E870E060E008959FEF80EC0895002495
:102BF0000A941616170618060906089500240A9462
:102C000012161306140605060895092E0394000CE7
:102C100011F4882352F0BB0F40F4BF2B11F460FF76
:102C200004C06F5F7F4F8F4F9F4F089557FD90589F
:102C3000440F551F59F05F3F71F04795880F97FB80
:102C4000991F61F09F3F79F087950895121613063A
:102C50001406551FF2CF4695F1DF08C01616170669
:102C60001806991FF1CF869571056105089408959E
:102C7000E894BB2766277727CB0197F908950E9430
:102C80004A16A59F900DB49F900DA49F800D911D95
:102C900011240895A29FB001B39FC001A39F700D9E
:102CA000811D1124911DB29F700D811D1124911D54
:102CB00008955058BB27AA270E9471160C94051638
:102CC0000E94F71538F00E94FE1520F039F49F3F5E
:102CD00019F426F40C94F4150EF4E095E7FB0C942B
:102CE000EE15E92F0E94161658F3BA1762077307FC
:102CF0008407950720F079F4A6F50C9438160EF4A5
:102D0000E0950B2EBA2FA02D0B01B90190010C01FB
:102D1000CA01A0011124FF27591B99F0593F50F413
:102D2000503E68F11A16F040A22F232F342F44276B
:102D3000585FF3CF469537952795A795F040539563
:102D4000C9F77EF41F16BA0B620B730B840BBAF033
:102D50009150A1F0FF0FBB1F661F771F881FC2F79E
:102D60000EC0BA0F621F731F841F48F487957795B2
:102D70006795B795F7959E3F08F0B0CF9395880F6C
:102D800008F09927EE0F9795879508950E9475177B
:102D9000E3950C949E170E94DF160C9405160E9472
:102DA000FE1558F00E94F71540F029F45F3F29F016
:102DB0000C94EE1551110C9439160C94F4150E94D4
:102DC000161668F39923B1F3552391F3951B550B10
:102DD000BB27AA2762177307840738F09F5F5F4FEE
:102DE000220F331F441FAA1FA9F335D00E2E3AF02D
:102DF000E0E832D091505040E695001CCAF72BD045
:102E0000FE2F29D0660F771F881FBB1F2617370795
:102E10004807AB07B0E809F0BB0B802DBF01FF27C7
:102E200093585F4F3AF09E3F510578F00C94EE15A1
:102E30000C9439165F3FE4F3983ED4F3869577956A
:102E40006795B795F7959F5FC9F7880F911D969580
:102E5000879597F90895E1E0660F771F881FBB1FDC
:102E6000621773078407BA0720F0621B730B840B89
:102E7000BA0BEE1F88F7E09508950E9444176894F6
:102E8000B1110C94391608950E941E1688F09F57B0
:102E900098F0B92F9927B751B0F0E1F0660F771F7E
:102EA000881F991F1AF0BA95C9F714C0B13091F074
:102EB0000E943816B1E008950C943816672F782FC9
:102EC0008827B85F39F0B93FCCF386957795679539
:102ED000B395D9F73EF490958095709561957F4FA5
:102EE0008F4F9F4F08950C94F4150E941E16D8F32F
:102EF000E894E0E0BB279F57F0F02AED3FE049EC73
:102F000006C0EE0FBB0F661F771F881F28F0B23A6E
:102F100062077307840728F0B25A620B730B840BA5
:102F2000E3959A9572F7803830F49A95BB0F661F37
:102F3000771F881FD2F790480C94C617EF93E0FFD5
:102F400007C0A2EA2AED3FE049EC5FEB0E94711650
:102F50000E9405160F90039401FC9058E4EEF0E0F7
:102F60000C94D2170E945A1508F48FEF08959F937E
:102F70000E9475170F9007FCEE5F0C949E170E943D
:102F80005A15880B990B08959F3F31F0915020F40A
:102F9000879577956795B795880F911D9695879535
:102FA00097F908959F938F937F936F93FF93EF9378
:102FB0009B01AC010E947E15EF91FF910E94E617E4
:102FC0002F913F914F915F910C947E15DF93CF939A
:102FD0001F930F93FF92EF92DF927B018C01689415
:102FE00006C0DA2EEF010E949115FE01E894A5912A
:102FF0002591359145915591A6F3EF010E947116E7
:10300000FE019701A801DA9469F7DF90EF90FF9035
:103010000F911F91CF91DF910895A1E21A2EAA1B63
:10302000BB1BFD010DC0AA1FBB1FEE1FFF1FA21778
:10303000B307E407F50720F0A21BB30BE40BF50B75
:10304000661F771F881F991F1A9469F760957095FE
:10305000809590959B01AC01BD01CF010895EE0FC5
:10306000FF1F881F8BBF0790F691E02D1994FC017C
:103070008191861721F08823D9F7992708953197F0
:10308000CF010895FB01DC014150504030F08D919B
:103090000190801919F40020B9F7881B990B089545
:0430A000F894FFCFD2
:1030A4008FC2F53D6666E63E0000B0400000803FFA
:1030B4000000803F000000004E04B803E503BB0499
:1030C4001604F40308040D0A006E616E00696E664E
:1030D400006F76660053544F500050494E470045E8
:1030E4004E433F005345545F5452494D0053455499
:1030F4005F504944005345545F504F534500534576
:10310400545F524F424F545F56454C4F43495459B4
:023114000000B9
:00000001FF
